:020000040800F2
:100000006807002089010008A7130008971000085E
:10001000A51300088F020008211500080000000049
:10002000000000000000000000000000AB1300080A
:100030009102000800000000A9130008AD13000899
:10004000A3010008A3010008A3010008A301000800
:10005000A3010008A3010008A3010008A3010008F0
:10006000A3010008A3010008A3010008A3010008E0
:10007000A3010008A3010008A3010008A3010008D0
:10008000A3010008A3010008A3010008A3010008C0
:10009000A3010008A3010008A3010008A3010008B0
:1000A000A3010008A3010008A3010008A3010008A0
:1000B000A3010008A3010008A3010008A301000890
:1000C000A3010008A3010008A3010008A301000880
:1000D000A3010008A3010008A3010008A301000870
:1000E000A3010008A3010008A301000800F002F822
:1000F00000F03AF80AA090E8000C82448344AAF188
:100100000107DA4501D100F02FF8AFF2090EBAE885
:100110000F0013F0010F18BFFB1A43F0010318473B
:10012000C4160000E4160000103A24BF78C878C155
:10013000FAD8520724BF30C830C144BF04680C60ED
:10014000704700000023002400250026103A28BF35
:1001500078C1FBD8520728BF30C148BF0B60704739
:100160001FB51FBD10B510BD00F058F81146FFF7C0
:10017000F7FF01F08DFA00F076F803B4FFF7F2FF15
:1001800003BC00F07DF8000009488047094800479B
:10019000FEE7FEE7FEE7FEE7FEE7FEE7FEE7FEE737
:1001A000FEE7FEE704480549054A064B7047000094
:1001B00001140008ED000008680100206807002015
:1001C00068030020680300204FF0000200B51346CA
:1001D00094469646203922BFA0E80C50A0E80C5067
:1001E000B1F12001BFF4F7AF090728BFA0E80C5018
:1001F00048BF0CC05DF804EB890028BF40F8042B11
:1002000008BF704748BF20F8022B11F0804F18BF7D
:1002100000F8012B7047704770477047754600F033
:100220002BF8AE4605006946534620F00700854688
:1002300018B020B5FFF7B6FFBDE820404FF000062C
:100240004FF000074FF000084FF0000B21F00701BE
:10025000AC46ACE8C009ACE8C009ACE8C009ACE801
:10026000C0098D46704710B50446AFF300802046A4
:10027000BDE81040FFF781BF00487047040100202F
:1002800001491820ABBEFEE7260002007047FEE7DA
:100290007047000070B5044600F00CF90546601C7C
:1002A00002D004480078044400F004F9401BA04246
:1002B000FAD370BD040000202DE9F84FDFF8B891A3
:1002C000002409F1040A0AF1040B23460F270BF15D
:1002D000040EC9E00125A5402A40AA427DD1674EFF
:1002E000D1F804C0ACEB0608B44532D014DCBCF144
:1002F000030F3AD009DCBCF1000F2AD0BCF1010F8A
:100300001CD0BCF1020F31D11DE0BCF1110F17D090
:10031000BCF1120F2AD119E0B8F5881F19D006DCFC
:10032000B8F5803F15D0B8F5801F1FD111E0B8F5A2
:10033000001F0ED0B8F5041F18D10AE0CB6815E0F5
:10034000CB681B1D12E0CB6808330FE0CB680C3381
:100350000CE08B682BB1012B4FF0080303D04561F3
:1003600004E0042302E0056100E00023FF2A01D835
:10037000064601E000F104064FEA840501D9A5F123
:100380002005D6F8008007FA05FC28EA0C0803FAD5
:1003900005F548EA0508C6F800804D68ED0062D50D
:1003A000374DAE6946F00106AE61AD6924F0030633
:1003B00005F001050095334D06EB050CDCF80850FF
:1003C000A607360F07FA06F825EA0805DFF8B88011
:1003D000404503D14FF0000817E044E0DFF8AC805F
:1003E000404502D14FF001080FE0DFF8A4804045FE
:1003F00002D14FF0020808E0DFF89880404502D1B2
:100400004FF0030801E04FF0040808FA06F848EA44
:100410000508CCF808804D68D9F80060ED034D461A
:1004200001D5164300E096432E604D68DAF800606F
:10043000AD03554601D5164300E096432E604D6846
:10044000DBF80060ED025D4601D5164300E09643FF
:100450002E604D68DEF80060AD02754601D516438A
:1004600000E096432E60641C0D682A46E5407FF448
:1004700031AFBDE8F88F000000040140000011100A
:10048000001002400000014000080140000C014043
:100490000010014000140140C26821EA02030A4032
:1004A00043EA0241016170470AB1016170470904E2
:1004B000FBE700000148806870470000040000204E
:1004C00070B5040025D094F83D00002520B984F8CB
:1004D0003C50204600F04EF9242084F83D0020686E
:1004E000016821F0010101602068016841F40041C8
:1004F00001602068016821F40041016000F088FA81
:100500004D4A6168914201D84C4900E04C4988420B
:1005100001D2012070BD4B492368B0FBF1F15E6848
:1005200026F03F060E435E606368934206D94FF49F
:10053000967359434FF47A73B1FBF3F12368491C66
:100540001E6A26F03F06314319626168914210D855
:100550004900401EB0FBF1F2521CC2F30B02042A08
:1005600001D2042022E0B0FBF1F0401CC0F30B00EC
:100570001CE0A268F2B301EBC10303EB0116431EBA
:10058000B3FBF6F35B1C43F480431B0549D092B3E5
:1005900001EBC10202EB0111401EB0FBF1F0401C67
:1005A000C0F30B0040F4804040F400402168CA6969
:1005B0004CF6FF739A431043C861D4E90710014316
:1005C0002068026822F0C00211430160D4E90301EF
:1005D00001432068826848F2FF339A4311438160E7
:1005E000D4E9050108432168CA6822F0FF021043DC
:1005F000C86001E00EE016E02068016841F00101EA
:1006000001602564202084F83D00256384F83E5075
:10061000002070BD01EB4106431EB3FBF6F35B1CEB
:10062000B3E70120C2E701EB4101401EB0FBF1F04E
:10063000401CC0F30B00B7E7A086010080841E00B9
:1006400000093D0040420F002DE9F84F1F4690463B
:100650008A460446DDF82890FFF72CFF054694F8FB
:100660003D0020287FD119230122404920460095D2
:1006700000F09EFD002876D194F83C00012872D04D
:10068000012084F83C0020680168C90703D1016893
:1006900041F0010101602068016821F400610160FE
:1006A000212084F83D00102084F83E0000262664B6
:1006B000C4F824806785608D20852D48E0622B4634
:1006C0004A465146204600F0FFFC90B92068416937
:1006D0008069009036E02A464946204600F0E7FD52
:1006E00050B1206C042804D12068016841F40071E5
:1006F00001600120BDE8F88F606A21680078086118
:10070000606A401C6062618D491E6185218D491EB1
:1007100089B2218522685369DB435B070BD451B151
:1007200000781061606A401C6062608D401E6085C8
:10073000208D401E20852A464946204600F012FDA5
:100740000028CED1208D0028C5D154F83D0B01687A
:1007500041F400710160202004F81E09E6776677F5
:100760000020C7E7FFE70220C4E7000002001000F6
:100770000000FFFF10B586B00021009101910291A9
:10078000039100680F4988421AD10F4CA06940F0CC
:100790000800A061A069694600F008000490C0202C
:1007A000009012200190032003900848FFF784FD79
:1007B000E06940F40010E061E06900F4001004908A
:1007C00006B010BD0054004000100240000C014073
:1007D000024881680278114481607047040000205B
:1007E000074810B5016841F010010160032000F0D6
:1007F00067F80F2000F006F800F024F8002010BD84
:100800000020024070B50D4D04464FF47A712878EF
:10081000B1FBF0F00A490968B1FBF0F000F0DEFA34
:1008200048B9102C07D200222146501E00F028F8AB
:1008300000206C6070BD012070BD0000040000202D
:10084000100000200C4808B5816941F00101816168
:10085000816901F001010091C16941F08051C161DC
:10086000C06900F0805000900448416821F0E061C8
:1008700041F00071416008BD0010024000000140DD
:10088000F0B40E4B1B680C46C3F30223C3F10705FB
:10089000042D00D90425191D072901D2002300E0E9
:1008A000DB1E012606FA05F1491E214099409E40B3
:1008B000761E16403143F0BC00F033BE0CED00E074
:1008C000064900F0070208684FF6FF03184040EAA7
:1008D0000220034A10430860704700000CED00E05E
:1008E0000000FA052DE9F0470F46050061D0434EA0
:1008F000306800F00700B84209D2306820F00700E5
:1009000038433060306800F00700B84251D12868A1
:100910003B4C810712D5400703D5606840F4E06086
:1009200060602878000703D5606840F4605060601C
:100930006068A96820F0F000084360602878C0076C
:1009400028D06868012810D02168022810D08907B3
:1009500000292EDA616821F0030101436160FFF78D
:10096000A9FD804641F288390DE021688903EFE74F
:100970008901EDE7FFF79EFDA0EB0801494502D98B
:100980000320BDE8F0876068696800F00C00B0EBF8
:10099000810FEFD1306800F00700B8420BD9306802
:1009A00020F0070038433060306800F00700B8429C
:1009B00001D00120E5E72878400705D56068E9689F
:1009C00020F4E060084360602878000706D560687E
:1009D000296920F4605040EAC100606000F038F8F6
:1009E0006168084AC1F30311515CC84006490860B8
:1009F00006480068FFF706FF0020C2E7002002401B
:100A000000100240CC170008100000200800002051
:100A10000448054900684968044AC1F30221515C51
:100A2000C84070471000002000100240DC1700088A
:100A30000448054900684968044AC1F3C221515C71
:100A4000C84070471000002000100240DC1700086A
:100A500012A185B00FC98DE80F0014A0144A0068D8
:100A600004905168134801F00C03042B10D0082B9C
:100A70000ED1C1F38343C9031DF803000AD55168A1
:100A800004AAC1F34041515C0A4A5043B0FBF1F063
:100A900005B0704708494843FAE70000020304051F
:100AA000060708090A0B0C0D0E0F101001020000BA
:100AB0000010024000127A0000093D002DE9F84FB5
:100AC000040070D02078C04DC00749D06868C0F3DA
:100AD0008100012807D06868C0F38100022809D18D
:100AE0006868C00306D52868800339D56068002887
:100AF000E7D035E06068B0F5803F0BD010B1B0F5BD
:100B0000A02F11D0286820F480302860286820F4B5
:100B1000802002E0286840F480302860606890B14E
:100B2000FFF7C8FC06460AE0286840F480202860E9
:100B3000F0E700BFFFF7BEFC801B642873D828686D
:100B40008003F7D50CE0FFF7B5FC064605E000BFD3
:100B5000FFF7B0FC801B6428F0D828688003F7D426
:100B600020789A4E80074FF001094FF0000839D5E0
:100B7000686810F00C0F07D06868C0F38100022885
:100B800009D16868C00306D42868800714D5206995
:100B9000012808D110E02069B0B1C6F80090FFF735
:100BA00089FC074605E00AE1FFF784FCC01B022828
:100BB000C4D828688007F7D52868616920F0F80054
:100BC00040EAC10028600DE0C6F80080FFF772FC23
:100BD000074604E0FFF76EFCC01B022823D82868F4
:100BE0008007F7D4207800072CD57948A169D9B1BE
:100BF000C0F80090FFF75EFC074604E0FFF75AFCE0
:100C0000C01B02280FD8686A8007F7D571484FF4D7
:100C1000FA510068B0FBF1F0009000BF0098411E4F
:100C20000091FAD20EE080E0C0F80080FFF742FCAD
:100C3000074604E0FFF73EFCC01B022875D8686A2F
:100C40008007F7D42078400760D5E8690027C00006
:100C500008D4E86940F08050E861E869012700F0B5
:100C6000805000905C480168C90513D40168834630
:100C700041F480710160FFF71DFC824606E000BF71
:100C8000FFF718FCA0EB0A0064284ED8DBF8000040
:100C9000C005F5D5E06801280AD008B1052813D0B1
:100CA000286A20F001002862286A20F0040002E08F
:100CB000286A40F001002862E06841F2883B98B160
:100CC000FFF7F8FB82460BE0286A40F00400286238
:100CD000EEE700BFFFF7EEFBA0EB0A0159455AD83B
:100CE000286A8007F6D50CE0FFF7E4FB824605E0B2
:100CF000FFF7E0FBA0EB0A0159454CD8286A8007B2
:100D0000F6D41FB1E86920F08050E861E06988B34B
:100D10006968C1F38101022944D00228C6F86080C5
:100D200004D0FFF7C7FB044638E034E0FFF7C2FB0E
:100D3000074604E0FFF7BEFBC01B02282BD828683B
:100D40008001F7D4206AB0F5803F05D16868A168BA
:100D500020F4003008436860D4E90801084369685A
:100D600021F4741108436860C6F86090FFF7A2FB95
:100D7000044606E025E000BFFFF79CFB001B0228AD
:100D800009D828688001F7D51BE000BFFFF792FB68
:100D9000001B022802D90320BDE8F88F28688001D3
:100DA000F4D40EE00128F7D06868226A00F480319C
:100DB000914204D1616A00F47010884201D0012090
:100DC000EAE70020E8E7000000100240000042428D
:100DD00080044242100000200070004010B5401E08
:100DE000B0F1807F01D3012010BD4FF0E02460619D
:100DF0000F21601700F095FB0020A0610720206103
:100E0000002010BD70B5040004D094F83D0000250A
:100E100010B106E0012070BD84F83C50204600F07F
:100E200023F8242084F83D002068C16821F4005193
:100E3000C160204600F0E6FA2068016921F4904183
:100E400001612068416921F02A0141612068C1687F
:100E500041F40051C1602564202084F83D0084F8ED
:100E60003E00002070BD000070B586B000240094E4
:100E700001940294039403682648254E022103221C
:100E80000515B3421ED1836943F4804383618369AE
:100E900003F480430493836943F00403836180690E
:100EA0001D4E00F0040004900802CDE900010392F9
:100EB00069463046FFF700FACDE9005469463046EE
:100EC000029420E0154EB3421FD1C36943F480233E
:100ED000C361C36903F480230493836943F0080367
:100EE00083618069CDE9005100F00800CDE903205D
:100EF0000B4D69462846FFF7DFF9E814CDE90004F9
:100F0000694628460294FFF7D7F906B070BD000085
:100F10000038014000100240000801400048004035
:100F2000000C01402DE9F84F044690F83E009A4627
:100F300016460D46202853D1FDB1F6B194F83C0079
:100F400001284DD0012084F83C000027276422208E
:100F500084F83E002763FFF7ADFAA6858146E68553
:100F6000A0684FF48058404501D1206940B12E4619
:100F70005FF0000584F83C7027E00120BDE8F88FA1
:100F80000026F7E74B46002220212046CDF800A09E
:100F900000F094FA08B10320F0E726B1A0684045BC
:100FA0001BD038B108E020684068C0F3080025F87D
:100FB000020B07E0206980B12068406800F07F00E4
:100FC00006F8010BE08D401EE085E08D0028D9D1A8
:100FD000202084F83E000020D0E720684068EFE73A
:100FE0000220CBE72DE9F843044690F83D001F4668
:100FF00016460D4620284CD1C5B1BEB194F83C0030
:10100000012846D0012084F83C004FF00008C4F8C5
:101010004080212084F83D00FFF74CFAA6848146E9
:10102000E684A068B0F5805F03D004E00120BDE84D
:10103000F883206928B12E465FF0000584F83C80D3
:101040000EE00026FAE78021204600F037FAA0B92A
:10105000AEB116F8010B21684860E08C401EE084B8
:10106000E08C4B464FF0000200970028EBD14FF088
:101070004001204600F022FA30B10320D7E735F8CE
:10108000020BC0F30800E6E7202084F83D000020B2
:10109000CDE70220CBE7FEE701684A69D24352055B
:1010A0000FD46FF480624A61002140F8301F202283
:1010B00042738173026942F00402026101730120EC
:1010C0007047002070470000F8B50446C06A1E460D
:1010D0000D461746082807D0012805D010F5803F97
:1010E00002D0206B122804D12068016841F480717D
:1010F0000160134600224FF001112046009600F0D7
:1011000057F840B120680068C00502D54FF4007060
:1011100020640320F8BD2069B0F5804F0ED0062072
:10112000216800EAD51040F0F000086133463A46E5
:101130000B49204600F070F878B902E005F0FE0097
:1011400000E0E8B221680861054933463A46891F44
:10115000204600F061F80028DCD00120F8BD000036
:101160000800010070B516460D4604460DE0204605
:10117000FFF792FF08B1012070BD681C05D0FFF792
:1011800099F9801BA84207D835B120684069C0434F
:101190004007ECD4002070BD002044F8300F20211F
:1011A0006173A073216941F0200121612073E2E79E
:1011B0002DE9F0471E4690460D460446C1F3074709
:1011C000DDF8209008E0701C06D0FFF773F9A0EB63
:1011D0000900B0420FD876B12068012F18D080697D
:1011E00025EA00000004000C14D000214145EAD09B
:1011F0000020BDE8F087002044F8300F2021617303
:10120000A073216941F02001216120730120F0E7E2
:101210004069E5E70121E9E72DE9F0479A46914663
:101220000E46044600254FF02008C1F3074725E08D
:1012300020684069C043400514D42068016841F427
:101240000071016021686FF480604861256384F853
:101250003D8084F83E50206C40F00400206484F807
:101260003C501FE0B9F1FF3F08D0FFF723F9A0EB96
:101270000A0149450CD8B9F1000F09D02068012FA7
:1012800013D0806926EA00000004000C0BD0CFE7E1
:1012900044F8305F84F80D80A573206940F0200089
:1012A000206125730120BDE8F0874069EAE770B549
:1012B00016460D4604460DE02046FFF7EDFE08B148
:1012C000012070BD681C05D0FFF7F4F8801BA84210
:1012D00007D835B120684069C0430006ECD400202F
:1012E00070BD002044F8300F20216173A073216984
:1012F00041F0200121612073E2E700002DE9F04177
:1013000086B00026244800960196029603968169CD
:1013100041F010018161816901F01001049181693E
:1013200041F004018161816901F004010491816946
:1013300041F0080181618069184F00F008004FF406
:1013400000540490002221463846FFF7ADF8DFF83C
:101350005080002206214046FFF7A6F8009402259F
:1013600001240395CDE9014669463846FEF7A4FFFE
:10137000CDE90054CDE9026569464046FEF79CFF81
:101380000420CDE9000469464046CDE90245FEF758
:1013900093FF06B0BDE8F08100100240001001404C
:1013A00000080140FEE7FEE770477047FFF710BAFC
:1013B00010B590B028216846FEF706FF14210AA850
:1013C000FEF702FF0220009001200490102000246C
:1013D000059007946846FFF771FB08B172B6FEE707
:1013E0000F20CDE90A040C940D9400210AA80E9454
:1013F000FFF778FA002801D072B6FEE710B010BDF2
:101400007047000070B5044600680169E26821F485
:101410004051114301612169A06808436169084393
:101420002168CA6841F20C639A430243CA6020688B
:101430004169A26921F44071114341611E4920684C
:10144000884202D1FFF7F4FA01E0FFF7E1FA00EB7E
:10145000C00101EB0012606864218000B2FBF0F370
:10146000B3FBF1F36FF018067343B2FBF0F5B2FB78
:10147000F0F605EB8305322303EB0515B5FBF1F51B
:10148000B6FBF1F605F0F00505EB0615B2FBF0F63C
:10149000B2FBF0F0B0FBF1F06FF01802504306EB36
:1014A000800003EB0010B0FBF1F0216800F00F00AA
:1014B0002844886070BD0000003801402DE9F041EB
:1014C000984617460E460446069D1DE0681C1BD034
:1014D0002DB1FEF7EFFFA0EB0800A84214D9206859
:1014E000C16821F4D071C1602068416921F0010117
:1014F0004161202084F83D0084F83E00002084F8FB
:101500003C000320BDE8F0812068006836EA000056
:1015100004D00020B842D9D00020F3E70120F9E739
:10152000FEE70907090E002804DB00F1E02080F83F
:101530000014704700F00F0000F1E02080F8141D47
:10154000704710B5802000F051F80024202000F0F2
:101550006DF8641C462CF9DB10BD10B53220FEF787
:1015600099FE302000F042F80520FEF793FE30206F
:1015700000F03CF80120FEF78DFE302000F036F838
:101580000A20FEF787FE202000F030F80A20FEF740
:1015900081FE282000F02AF80120FEF77BFE0820BB
:1015A00000F024F80120FEF775FE012000F01EF87F
:1015B0000120FEF76FFE0120FEF76CFE062000F012
:1015C00015F80120FEF766FEBDE810400C2000F083
:1015D0000DB810B1012805D102E041F0800101E011
:1015E00041F0C001C8B200F001B800001CB500F025
:1015F000F00141F00C028DF8042041F008010001D7
:101600008DF8051040F00C018DF8061040F0080030
:101610008DF8070064200090042301AA4E2102489F
:10162000FFF712F81CBD0000140000201CB500F0EC
:10163000F00141F00D028DF8042041F00901000194
:101640008DF8051040F00D018DF8061040F00900EE
:101650008DF8070064200090042301AA4E2102485F
:10166000FEF7F2FF1CBD00001400002070B50D460F
:101670000646002409E0102C03D100210120FFF7C9
:10168000A8FF305DFFF7D2FF641CAC42F3DB70BDF6
:10169000FFF7A6F8FFF78CFEFFF730FE44484349FA
:1016A000002401604349C0E901144FF48041C0E9BE
:1016B000034144618461C4610462FEF701FF08B123
:1016C00072B6FEE73A483C4954304FF41656016072
:1016D000C0E901640C25C460C0E904458461C461AB
:1016E000FFF790FB08B172B6FEE7314833499830F6
:1016F0000160C0E90164C460C0E904458461C4615B
:10170000FFF780FB08B172B6FEE7FFF726FF2C4D0E
:10171000DFF8B0804FF47A764FF400572849244818
:1017200033460122491C5430FFF7FCFB0328F5D057
:1017300023491F4833460122491C5430FFF752FC0D
:101740001B4A28786978DC320D29115406D0401CD8
:10175000287039464046FEF79FFEDFE7394640468F
:10176000FEF79AFE12493346DC312A78A1F1440093
:10177000FFF738FC0E483346022213A19830FFF7DA
:1017800031FC0B48334602220FA15430FFF72AFCEC
:10179000FFF7D7FE00210846FFF71BFF0448297812
:1017A000DC30FFF763FF2C70D3E7000000540040EB
:1017B00014000020A08601000038014000480040CD
:1017C00000000020001001400D0A00000000000091
:1017D00000000000010203040607080900000000E1
:1017E0000102030404180008000000201400000097
:1017F00028010008181800081400002054070000F1
:10180000440100080000000001000000100000007A
:08181000000000000024F400B8
:04000005080000ED02
:00000001FF
